:100000000C9440000C9468000C9468000C946800F8
:100010000C9468000C9468000C9468000C946800C0
:100020000C9468000C9468000C9468000C946800B0
:100030000C9468000C9468000C9468000C946800A0
:100040000C9468000C9468000C9468000C94680090
:100050000C9468000C9468000C9468000C94680080
:100060000C9468000C9468000C9468000C94680070
:100070000C9468000C9468000C9468006D02710286
:1000800011241FBECFEFD8E0DEBFCDBF11E0A0E04E
:10009000B1E0E0E1F5E002C005900D92A231B107B8
:1000A000D9F721E0A2E1B1E001C01D92A331B2076E
:1000B000E1F710E0CFE3D0E004C02197FE010E94F9
:1000C0007502CE33D107C9F70E942F020C947B0230
:1000D0000C9400001092C5008FEC8093C40081EA5C
:1000E0008093C00088E18093C10086E08093C200C5
:1000F00008959091C00095FFFCCF8093C6000895AD
:10010000089580EA809311011092B90080E28093F3
:10011000B8000895FC0180E88083CF010C94810031
:10012000982F9370891305C0880F806A80931101FE
:1001300008958FEF0895FA0194EA24E89093BC00A3
:100140008091BC0087FFFCCF809111018093BB00A0
:100150002093BC008091BC0087FFFCCF8091B90048
:10016000883161F784EA8093BC008091BC0087FFEE
:10017000FCCF809111018093BB0084E88093BC0088
:100180008091BC0087FFFCCF7093BB0084E8809314
:10019000BC008091BC0087FFFCCF6093BB0084E86B
:1001A0008093BC008091BC0087FFFCCF8091BC0095
:1001B00087FFFCCF84EA8093BC008091BC0087FF5E
:1001C000FCCF809111018F5F8093BB0084E8809306
:1001D000BC008091BC0087FFFCCF84E88093BC000A
:1001E0008091BC0087FFFCCF8091BB00808384E9B5
:1001F0008093BC0080E0089594EA34E89093BC00BA
:100200008091BC0087FFFCCF809111018093BB00DF
:100210003093BC008091BC0087FFFCCF8091B90077
:10022000883161F784EA8093BC008091BC0087FF2D
:10023000FCCF809111018093BB0084E88093BC00C7
:100240008091BC0087FFFCCF7093BB0084E8809353
:10025000BC008091BC0087FFFCCF6093BB0084E8AA
:100260008093BC008091BC0087FFFCCF84EA809320
:10027000BC008091BC0087FFFCCF809111018F5F93
:100280008093BB0084E88093BC008091BC0087FF12
:10029000FCCF84EC211105C084E98093BC0080E090
:1002A0000895213009F484E88093BC009091BC004B
:1002B00097FFFCCFFA019091BB0091932150AF01C1
:1002C000E9CF94EA24E89093BC008091BC0087FFBA
:1002D000FCCF809111018093BB002093BC008091E2
:1002E000BC0087FFFCCF8091B900883161F784EAB8
:1002F0008093BC008091BC0087FFFCCF80911101EE
:100300008093BB0084E88093BC008091BC0087FF91
:10031000FCCF7093BB0084E88093BC008091BC004C
:1003200087FFFCCF6093BB0084E88093BC00809182
:10033000BC0087FFFCCF4093BB0084E88093BC00E7
:100340008091BC0087FFFCCF84E98093BC0080E0F3
:100350000895FB01260F372F311DDC018C91815050
:10036000990B862B9F2B2817390718F09C012F5FBC
:100370003F4F822F8E1B24EA34E82093BC009091DB
:10038000BC0097FFFCCF909111019093BB0030937C
:10039000BC009091BC0097FFFCCF9091B9009831C0
:1003A00061F794EA9093BC009091BC0097FFFCCF5A
:1003B000909111019093BB0094E89093BC009091B0
:1003C000BC0097FFFCCFF093BB0094E89093BC0077
:1003D0009091BC0097FFFCCFE093BB0094E8909312
:1003E000BC009091BC0097FFFCCF982F24E891119E
:1003F00004C094E99093BC000895FA0131913093C0
:10040000BB002093BC003091BC0037FFFCCF915063
:10041000AF01EDCFDF92EF92FF920F931F93CF9337
:10042000DF93D82ED92F7B018A01C22F2C2FA80150
:10043000B7018D2D9D2F0E94A901282F30E0E20EDB
:10044000F31EC81B020F131FC111F0CF80E0DF9114
:10045000CF911F910F91FF90EF90DF900895CDB74E
:10046000DEB761970FB6F894DEBF0FBECDBF8FEF3A
:1004700081B91AB80E946A0021E140E051E070E0C1
:1004800060E082E191E00E940A028FE295E7019725
:10049000F1F700C0000021E1AE014F5F5F4F70E057
:1004A00060E082E191E00E94FC008E010F5F1F4F2F
:1004B0007E0191E1E90EF11CF80181918F010E940A
:1004C00079000E151F05C1F790E080E061960FB628
:1004D000F894DEBF0FBECDBF089582E191E00C9489
:1004E0008A0082E191E00C948000EE0FFF1F0590DE
:1004F000F491E02D099410E0CFE3D0E004C0FE01B8
:100500000E9475022196C034D107C9F7F894FFCF35
:10051000504F4C59544543484E49515545204D5430
:020520004CA0ED
:00000001FF
