:100000000C943E000C9448000C9448000C9448005A
:100010000C9448000C9448000C9448000C94480040
:100020000C9448000C9448000C9448000C94480030
:100030000C9448000C9448000C9448000C94480020
:100040000C9448000C9448000C9448000C94480010
:100050000C9448000C9448000C9448000C94480000
:100060000C9448000C9448000C9448000C944800F0
:100070000C9448000C9448000C94480011241FBEB6
:10008000CFEFD8E0DEBFCDBF0E945B000C946D00C7
:100090000C940000909389008093880090938B00CB
:1000A00080938A0081EA8093800082E080938100BF
:1000B00010928200089580E38AB9C0E48C2F90E00A
:1000C0000E944A002FEF83ED90E321508040904042
:0E00D000E1F700C00000C05CF1CFF894FFCF54
:00000001FF
