:100000000C943E000C9450000C9450000C94500042
:100010000C9450000C9450000C9450000C94500020
:100020000C9450000C9450000C9450000C94500010
:100030000C9450000C9450000C9450000C94500000
:100040000C9450000C9450000C9450000C945000F0
:100050000C9450000C9450000C9450000C945000E0
:100060000C9450000C9450000C9450000C945000D0
:100070000C9450000C9450000C94500011241FBE9E
:10008000CFEFD8E0DEBFCDBF21E0A0E0B1E001C0FE
:100090001D92A230B207E1F70E94DD000C94E5004A
:1000A0000C94000081E082B98FE097E20197F1F7AC
:1000B00000C0000082E082B98FE097E20197F1F77B
:1000C00000C00000089589B182FB882780F9089557
:1000D0000E946300882341F08FE19EE40197F1F7CD
:1000E00000C000000C94630080E00895809100013E
:1000F000909101018330910549F14CF481309105D3
:10010000B9F082309105D9F0892B39F00895843007
:10011000910519F1059741F108950E946300882324
:1001200059F181E090E090930101809300010895DE
:100130000E946300811120C082E090E0F4CF0E9411
:1001400063008823C9F083E090E0EDCF0E94630054
:10015000811112C084E090E0E6CF0E946300882302
:1001600059F085E090E0DFCF0E946300811104C068
:100170001092010110920001089580910001909168
:1001800001018330910581F04CF48130910579F0C3
:100190008230910571F0892B39F0089584309105F2
:1001A00051F0059731F0089582E082B908950C94DA
:1001B000520081E0FACF12B808958FEF81B91AB8D2
:0E01C0000E9476000E94BD00FBCFF894FFCF96
:00000001FF
