:100000000C943E000C9450000C9450000C94500042
:100010000C9450000C9450000C9450000C94500020
:100020000C9450000C9450000C9450000C94500010
:100030000C9450000C9450000C9450000C94500000
:100040000C9450000C9450000C9450000C945000F0
:100050000C9450000C9450000C9450000C945000E0
:100060000C9450000C9450000C9450000C945000D0
:100070000C9450000C9450000C94500011241FBE9E
:10008000CFEFD8E0DEBFCDBF21E0A0E0B1E001C0FE
:100090001D92A330B207E1F70E94BA000C94C2008F
:1000A0000C94000089B182FB882780F908950E9492
:1000B0005200811102C080E008958FE19EE4019713
:1000C000F1F700C000000E9452008823A1F391E0E4
:1000D0009093020108950E945700811107C08091FA
:1000E0000201882321F010920201089580E0089512
:1000F000809100019091010182309105D9F02CF49A
:10010000009731F0019779F008950397D1F00895A1
:100110000E946B008823C9F081E090E09093010178
:100120008093000108950E946B00882371F082E0A3
:1001300090E0F4CF0E946B00882339F083E090E0D8
:10014000EDCF1092010110920001089580910001FD
:1001500090910101039761F481E082B92FEF83ED63
:1001600090E3215080409040E1F700C000000895E6
:1001700012B808958FEF81B91AB80E94A6000E94A4
:080180007800FBCFF894FFCFDB
:00000001FF
